:081000006F10801074FF000066
:1010080000000000000000009020002014250020AF
:10101800A9BDF9F3942000200000000000000000A2
:10102800962000209820002000000000000000000A
:101038009A200020000000009C20002000000000F2
:10104800D62B0020A0200020A2200020A4200020D1
:10105800A6200020A8200020AA200020AC200020E4
:1010680038260020B0200020B22000206829002067
:101078001E260020B8200020BA200020BC20002016
:10108800BE200020C0200020C2200020C420002054
:1010980001A001A001A001A001A001A001A001A040
:1010A80001A001A001A001A001A001A001A001A030
:1010B80001A001A001A001A001A001A001A001A020
:1010C80001A001A001A073270080218B97170000C1
:1010D8009387C76319CB732700809716000023A74F
:1010E800E66298435D9B7310078001000100371783
:1010F8000040930670052300D704930680FA230066
:10110800D704010001008346B70493F6F60DA30542
:10111800D70423000704732600809443A18AD18E44
:10112800739006809716000023A2065E0100010056
:10113800937605026384061A0347A700118B25EBF3
:1011480073270080218B19CB732700809716000026
:1011580023AEE65A98435D9B731007800100010097
:1011680037170040930670052300D704930680FACA
:101178002300D704010001008346A70093E6460038
:101188002305D70023000704F32600809843218B0A
:10119800558F731007801717000023290756010081
:1011A80001001307004B010001007D176DFF732735
:1011B8000080218B19CB732700809716000023A786
:1011C800E65498435D9B73100780010001003717B0
:1011D8000040930670052300D704930680FA230085
:1011E800D704010001007D892314A7000100010034
:1011F8000100010023000704F32600809843218B97
:10120800558F73100780171700002321075001001E
:10121800010073270080218B19CB73270080971654
:10122800000023A5E64E98435D9B731007800100DC
:10123800010037170040930670052300D704930672
:1012480080FA2300D7040100010001000100B7263D
:10125800004013061005A383C68023000704F32665
:1012680000809843218B558F731007801717000053
:10127800232E07480100010073270080218B19CB1A
:10128800732700809716000023A2E64898435D9BC9
:10129800731007800100010037170040930670059E
:1012A8002300D704930680FA2300D7040100010025
:1012B8008346B70493E60608A305D704230007046A
:1012C800732700809C43A18BD98F73900780971751
:1012D800000023AD074201000100828093760504D7
:1012E800638706160347A700418B25EB7327008009
:1012F800218B19CB732700809716000023A8E6409E
:1013080098435D9B73100780010001003717004068
:10131800930670052300D704930680FA2300D704A8
:10132800010001008346A70093E606012305D700C4
:1013380023000704F32600809843218B558F7310F0
:101348000780171700002323073C0100010013073B
:10135800007D010001007D176DFF73270080218B40
:1013680019CB732700809716000023A1E63A98430B
:101378005D9B73100780010001003717004093063A
:1013880070052300D704930680FA2300D7040100D0
:1013980001009376F50193E606042314D7000100B3
:1013A80001000100010023000704F3260080984390
:1013B800218B558F731007801717000023280734D7
:1013C80001000100130760046312E504732700801D
:1013D800218B19CB732700809716000023A8E632CB
:1013E80098435D9B73100780010001003717004088
:1013F800930670052300D704930680FA2300D704C8
:1014080001000100B72600400946B1B573270080E6
:10141800218B19CB732700809716000023A8E62E8E
:1014280098435D9B73100780010001003717004047
:10143800930670052300D704930680FA2300D70487
:1014480001000100B72600401306200529B57327BF
:101458000080218B19CB732700809716000023A7E3
:10146800E62A98435D9B7310078001000100371737
:101478000040930670052300D704930680FA2300E2
:10148800D704010001008356870093E6060C231455
:10149800D700E1B34111814601468145114506C691
:1014A800EF00700FF3270080A18B9716000093863A
:1014B800E62599CBF3270080171700002328F72487
:1014C8009C42DD9B7390078001000100B717004024
:1014D800130770052380E704130780FA2380E704C5
:1014E8000100010003C76704136717002383E7049B
:1014F80023800704732700809C42A18BD98F7390A7
:1015080007809717000023A3072001000100B240BD
:10151800410182808146014681451145EF00B007AF
:10152800F3270080A18B171700001307271E99CBFC
:10153800F32700809716000023AAF61C1C43DD9BA6
:101548007390078001000100B717004093067005EB
:101558002380D704930680FA2380D7040100010072
:10156800FD562396D70223800704F32600801C43E8
:10157800A18BD58F739007809717000023A80718B1
:1015880001000100F3270080A18B99CBF32700808D
:101598009716000023ACF6161C43DD9B739007805A
:1015A80001000100B7170040930670052380D70497
:1015B800930680FA2380D7040100010083C66704DC
:1015C80093E616002383D70423800704F3260080BC
:1015D8001C43A18BD58F739007809717000023A712
:1015E80007120100010001A0BD473305F502010003
:1015F8007D1575FD8280411122C426C206C6AA84C3
:10160800014463179400B24022449244410182800D
:1016180005041305803E4204C13F4180DDB7B7177A
:101628000040130700032388E702854717170000C7
:101638002328F71073002030411122C637240040B8
:1016480083476440858B81CB971000E0E780203189
:1016580085472303F44032444101730020300111CF
:101668008945014506CE22CC26CA4AC84EC652C470
:10167800B7190040970000E0E780A0DA2D4A9700EC
:1016880000E0E78020D1238C49052A89056497006A
:1016980000E0E780C0DD4A95130404FA97140000BF
:1016A8009384C4FE634EA40297A000E0E780E0376D
:1016B8009040D440979000E0E780806D9717000035
:1016C800938747FD9043D443979000E0E780406CB0
:1016D800F2406244D2444249B249224A05618280BA
:1016E80085450145970000E0E780A0D3238C490594
:1016F800970000E0E780A0D74A95634DA40297A021
:1017080000E0E780803297170000938727F990431D
:10171800D443979000E0E780A0679717000093876D
:1017280067F89043D44397A000E0E780E0B1904089
:10173800D44059BF81450145970000E0E78060CE5D
:10174800238C4905970000E0E78060D24A9597A06E
:1017580000E0E780802D97170000938727F59043D6
:10176800D443979000E0E780A06297170000938722
:1017780067F445BF41118145054506C622C4970057
:1017880000E0E78000CA970000E0E780A0C0B71734
:1017980000403947238CE7042A84970000E0E7805B
:1017A80000CD2295B2402244420541814101828008
:1017B8009717000083C787FA0111850717170000DC
:1017C800230EF7F806CE22CC4ACA171400001304D9
:1017D80064F84EC852C656C459352A86AE860840A3
:1017E8004C40978000E0E780E07A08C04CC0593749
:1017F8009737000083D7474863F6A700973700005C
:10180800239CA7469737000083D727476376F500C0
:10181800973700002393A74617170000034707F4DC
:101828009547631BF71297170000938727E99043A2
:10183800D44308404C40979000E0E780A0E8971711
:101848000000938727E89043D4432A8AAE8A97906A
:1018580000E0E780E05397170000938727E72A897D
:10186800AE898843CC435286D68697A000E0E780AD
:10187800A09D2A86AE864A85CE85979000E0E780AF
:1018880060E4971700009387E7E49043D443979068
:1018980000E0E78020E3978000E0E780A01F97172B
:1018A80000009387A7E39043D443979000E0E78034
:1018B80060E1971700009387E7E29043D44397804D
:1018C80000E0E780206D971700009387A7DD2A8640
:1018D800AE868843CC43979000E0E780A0DE971758
:1018E80000009387A7E09043D44397A000E0E780E7
:1018F800A095971700009387E7DF9043D44397A0FC
:1019080000E0E780609497170000938727DFD443AF
:101918009043979000E0E780A04797A000E0E78019
:10192800400A29473345E50297170000938747186F
:1019380083878703A9462320040023220400330554
:10194800E502B387D702AA97171700002312F71CDE
:1019580097170000238407E0F24062445249C249C5
:10196800324AA24A056182803737004083474740A0
:101978009146BD8B6386D7029946638FD700094786
:101988006399E724371700408327C70C93E707209C
:101998002326F70C7300203083475740730020300C
:1019A80041114800970000E0E780403B971700008E
:1019B80083C7D7DA0346410017170000130787F1DA
:1019C800B306F700850793F7F70F2380C60097162D
:1019D8000000A385F6D8171600000346A6EF930665
:1019E800A00A6312D61E8D4663F2F602971600000F
:1019F80083C656EE13067007639AC61A9715000039
:101A080083C575ED138645006349F60641017300E9
:101A180020303305F70003452500850793F7F70FB6
:101A2800AA9693F6F60FE3D6F5FE3A968347060094
:101A38006399D7148306E700954763C30600854773
:101A4800973600002381F622171600000346A6E801
:101A580089479716000083C626E86318F60217160A
:101A680000000346A607854763E4C700639BF600AA
:101A780097370000A389071E09A881468147850575
:101A88005DB717360000A300F61E971700002385E0
:101A9800D7068347570097160000A38FF60483578D
:101AA800670097160000239AF6049717000083C76B
:101AB800E7E29716000083C676E2A207B697971664
:101AC8000000239DF6029717000083C747E1971689
:101AD800000083C6D6E0A207B697971600002390A9
:101AE800F6029717000083C7A7DF9716000083C682
:101AF80036DFA207B697C207C1839306301F63F289
:101B0800F60A97160000239DF6FE9717000083C774
:101B180067DD9716000083C6F6DCA207B69797160E
:101B280000002390F6FE9717000023AD07FC9717D7
:101B3800000083C787DB9716000083C616DB0357B0
:101B48008701A207B69797160000239FF6FA971702
:101B5800000083C7C7D9971600002398E6FA17171D
:101B680000002305F7FA9717000083C767D81717EF
:101B780000000347F7D7A207BA97171700002318E2
:101B8800F7F813060010814517150000130585D4D2
:101B980097170000A38407BC97F0FFDFE780206356
:101BA800B5B597170000239D07F485B7130760069E
:101BB800639BE6000547971600002382E6BA3D4777
:101BC800E376F7E47DBF8547171700002309F7B8C8
:101BD8004DBF73002030411122C63724004083478F
:101BE8006400858B81CB976000E0E780609C854727
:101BF8002303F4003244410173002030411122C410
:101C080006C6370400201C408297F5BF8D45130592
:101C18000020970000E0E780C0C7970000E0E78059
:101C2800000A716513050520970000E0E78020068B
:101C3800F3270080A18B17170000130727AD99CB56
:101C4800F32700809716000023A2F6AC1C43DD9B07
:101C58007390078001000100B717004093067005D4
:101C68002380D704930680FA2380D704010001005B
:101C7800FD562396D702F3270080A18B99CBF32733
:101C880000809716000023A3F6A81C43DD9B7390E1
:101C9800078001000100B7170040930670052380F4
:101CA800D704930680FA2380D7040100010083C675
:101CB800670493E616002383D70423800704F326DA
:101CC80000801C43A18BD58F739007809717000065
:101CD80023AE07A20100010001A0230304801547D9
:101CE8002303E48001002302A480828083076480A8
:101CF800E3CE07FE23030480828083076480E3CE5B
:101D080007FE03454480828083076480E3CE07FE94
:101D18002302A4808280411126C44AC24EC006C64E
:101D28001377F50BAD47AA892E8995446306F7000A
:101D380019456537653F8D444E854537FD59FD1476
:101D480063983401B240A244124982494101828019
:101D5800135509011375F50F453F2209CDB7011138
:101D680026CC06CEB704080051371545BD37713764
:101D780069372AC6A53F32459377150089EB136565
:101D880015001375F50FF240E24405618280FD14D9
:101D9800E9FC0145CDBF397126DC4ADA4ED852D666
:101DA80056D45AD25ED006DE62CE66CCB7E700E0E3
:101DB8007D5783AA070022C603AA470023A0E71875
:101DC80023A2E718B7170040130770052380E7041C
:101DD800130780FA2380E70483C74704930B75FF32
:101DE800B684E20793FBFB0F8546AA892E8B3289BE
:101DF80037240040E187015763FA76016308D5006C
:101E08008946130700026313D5000157D98F93F74A
:101E1800F70FB71C00402382FC0411472303E4801A
:101E28001305F00F5D3D094CD135636D7C11B70585
:101E38000700DA9537870700795563F2E504B38719
:101E48009500636EF702370B0800A94733EB65016D
:101E58006399F90689E48144513D26850DA0DA8508
:101E68000945553D05090345F9FFFD14050B693D75
:101E780081C49377FB0FFDF7DD3569FD7D55B717F5
:101E88000040130770052380E704130780FA2380B6
:101E9800E70403C74704418B2382E704F250B7E7FE
:101EA80000E023A0571123A24711E25432445259AB
:101EB800C259325AA25A125B825B724CE24C2161BF
:101EC8008280A5476395F90685691309F00FB30663
:101ED8009900B3742B01B6941349F9FFB3749900B0
:101EE800856B33796901416B9387F9FFB3F7270154
:101EF80099E363FC340193D94900C147E3E637FF0E
:101F080099BF0569C1697D19D9B71305800D638823
:101F18006901130500026384790113051008CA8555
:101F2800DD3B353D21DD4E99B3843441D9B7DA859F
:101F38002D45D533CA94E30099F205097D3BA30FDB
:101F4800A9FED5BF9387F9FF93F7F70F6361FC0CE0
:101F580083C71C0413073008631FF70437070800FA
:101F6800636BEB04B3079B00B706100063F5D70457
:101F7800334BEB0089476393F9068980D549E38C95
:101F880004ECDA850945413B11090327C9FF91474C
:101F98002320E48003076480E34E07FE2303348193
:101FA800FD17EDFBFD14110B81C49377FB0FE9FFBF
:101FB8007D3371F5E1B5B717004003C75704B7077C
:101FC80008001377070219E3B78707007955E37804
:101FD800FBEA33079B00E3FFE7F855B58547E38243
:101FE800F9F2DA852D45053B9389F4FFE38504E68C
:101FF800293393F7390091EB8326048003270900DE
:1020080093074900E39AE6E43E89CE84F1BFB547D9
:102018006396F9001305900BC93135BDB147130517
:10202800B00AE38BF9FE99476391F904B7050800F4
:10203800B365BB002D45C53181448D4BA149753928
:1020480063967401832704802320F9008504E398AC
:1020580034FF8327048013172B01635507002312CD
:10206800F900D5BB2322F900FDB39D476399F90216
:1020780081451305B0044531BD44232009002322BE
:102088000900FD599D3993F77400CA9703C70700E3
:10209800FD14398D2380A700E39634FF6DBBA1475B
:1020A8006392F9046D398144630D0B008D479304E5
:1020B800C0036308FB009304000563048B019304C9
:1020C80040041375C507E30895D8194539313939DE
:1020D8000545213126850D3909453D314931E31C36
:1020E80005D669BB91476399F90013056006F53673
:1020F800F53E130590090DB7E38F09D4F154A9BB38
:1021080097010020938181EF17610020130101EFEF
:1021180017F5FFFF130505EF97050020938505EEDA
:1021280017160020130686FD63FAC50083220500F2
:1021380023A0550011059105E3EAC5FE17E5000047
:10214800130545E397150020938545FB17160020D6
:102158001306465B63FAC5008322050023A05500D9
:1021680011059105E3EAC5FE1715002013058559E9
:1021780097450020938505B26377B50023200500B5
:102188001105E36DB5FEFD42739002BC8D4273905C
:102198004280B722000093828288739002309702AF
:1021A80000209382A2E593E2320073905230977236
:1021B80000009382026C739012346FD0F363730043
:1021C80020303D432A876373C3029377F700BDEF3E
:1021D800ADE5937606FF3D8ABA960CC34CC30CC78F
:1021E8004CC74107E36BD7FE11E28280B306C340B8
:1021F8008A069702000096966780A6002307B70014
:10220800A306B7002306B700A305B7002305B70048
:10221800A304B7002304B700A303B7002303B70040
:10222800A302B7002302B700A301B7002301B70038
:10223800A300B7002300B700828093F5F50F9396AB
:102248008500D58D93960501D58D61B793962700A6
:102258009702000096968682E78086FA9680C117D4
:102268001D8F3E96E374C3F8A5B73367B500FD53D9
:102278000D8B79E7B7877F7F9387F7F710419441F4
:10228800B372F6003363F600BE92B3E2620063975E
:10229800720C6318D6065041D441B372F60033630A
:1022A800F600BE92B3E262006398720A631BD6041A
:1022B80010459445B372F6003363F600BE92B3E25C
:1022C80062006391720A631ED6025045D445B37208
:1022D800F6003363F600BE92B3E26200639A7208B6
:1022E8006311D60210499449B372F6003363F600BD
:1022F800BE92B3E26200639372085105D105E30F01
:10230800D6F61317060193970601631CF7001357B7
:10231800060193D706013305F7409375F50F91E948
:1023280082804183C1833305F7409375F50F91E1AE
:1023380082801377F70F93F7F70F3305F740828002
:102348000346050083C60500050585056313D60009
:1023580065FA3305D640828011059105E312D6FE51
:10236800014582802105A105E31CD6FC0145828038
:102378003105B105E316D6FC014582804105C1054A
:10238800E310D6FC01458280B7170040854603C894
:10239800870583C89705238CD70403C79705137847
:1023A800F80F93F8F80F13678700A38CE70403C7A7
:1023B80097051377B70FA38CE704238DD704371736
:1023C80000408347A7051306A705858BFDFB056518
:1023D8004147B7150040054E1303F5FF2300C6011A
:1023E80083460600858AEDFE83D6C5057D1742071C
:1023F80093C6F6FFB3F666004183B69765F3A10767
:102408009183130505801D8DA38C15054205238C2A
:10241800050541858280B717004003C777051A056F
:1024280092054D8D1377E70F13653500A38BE704ED
:102438001375F50FA38CA7048280B717004003C754
:1024480077051377E70FA38BE704130700F8A38D2D
:10245800E7043D47238CE70413075003A38CE704E4
:1024680082800547B7170040238DE70437170040DF
:102478008347A705858BEDFF0355C7055205518195
:102488008280B717004083C7E704120593F7F7085F
:10249800C98F93F7F70F73270080218B97160020B9
:1024A8009386462619CB7327008017160020232B06
:1024B800E62498425D9B73100780010001003717DE
:1024C8000040130670052300C704130680FA230092
:1024D800C704010001002307F7042300070473273A
:1024E80000809C42A18BD98F73900780971700209A
:1024F80023AA072001000100828041112A83014E8E
:10250800930E407E130F0019930F400663EE6E146E
:102518009308001913034006B3781503854E0D4F31
:10252800A14F337365020D891335150063E8BE1694
:102538001308F6FF794672984208135808013307C2
:10254800C70213D61700BE0732976146B3F6C60214
:1025580013068070B386C6023697A166F58F4207C8
:102568005D8FB716004083C7F60293F70708A307E5
:10257800F1000346F10083C7F60293F70708E394D6
:10258800C7FE8347F100B716004093F7F70F638142
:102598000716F3270080A18B9716002093868616CE
:1025A800639E071401000100B71700401306700569
:1025B8002380C704130680FA2380C70401000100A2
:1025C80023AA070303C6170313660608A388C702CE
:1025D80023800704732600809C42A18BD18F7390BF
:1025E80007809717002023AF07100100010011662C
:1025F800B71500407D16DC59C85DA98FF18FE5FF3E
:10260800F3270080A18B99CBF327008017160020B1
:10261800232AF60E9C42DD9B73900780010001007F
:10262800B7170040130670052380C704130680FA05
:102638002380C70401000100D8DB03C71703136711
:102648000704A388E70223800704732700809C42BD
:10265800A18BD98F739007809717002023A4070AAE
:1026680001000100410182807D133368E303930870
:10267800E016630E08003368F3039308D016630866
:1026880008009378330093B818009388D816330855
:102698001E01131E0801135E0E018DBD6393E50331
:1026A8000548638608000148630303002A88710807
:1026B8007298FD15131E0801C205135E0E01C18133
:1026C800B5B513F8150063F4BF007908D5B713380A
:1026D8001800E5BF83C7F60293F70708A307F100C0
:1026E8000346F10083C7F60293F70708E394C7FE91
:1026F8008347F10093F7F70FF1DF61BDF3270080FF
:10270800171600202320F6009C42DD9B739007805B
:1027180051BDB718004003A8C80303D3A80383D842
:1027280088034111060393D8F8004A08B30E130131
:102738009308407E22C626C44AC213582801231093
:102748001501930F00199302D01693034006130F37
:10275800C01603530500B378F30363800810B378F9
:102768007302638108109378330013BE1800130EA8
:10277800DE166350C8092390050005449944F94FB3
:10278800F542130900199303400683D80500138FF7
:1027980018006394880A03530500337E2303630CEF
:1027A8000E08B37873026386080093783300638455
:1027B8000808F148635C18052390E5010508231013
:1027C80006010566130606E1B3D5CE023244A244DB
:1027D800124933F6CE022390B6009306C00333564F
:1027E800D602B3F6DE022310C7002390D7004101BA
:1027F800828093B818009388D81633081841420885
:1028080005031358080123106500A1B78548630B19
:102818000E00337E7302814863060E0093783300FE
:1028280093B81800F10833081841420813580801F2
:102838002390E50199BFF548B5BF13F3180063F875
:10284800140163180300E3D902F7F948E9BFE31C50
:1028580003FEE3D30FF7FD48F9B7E3DE02F193086F
:10286800E01661BFE3590FF19308D01679B741110B
:10287800B7170040985F3AC6945F3247E39CE6FE7C
:10288800324541018280914763EEB70217D70000B5
:10289800130747CD8A05BA959C41BA978287B7171F
:1028A800004003A7470B1345F5FF698F23AAE70AE2
:1028B80003A7070B698F23A8E70A03A7070A798DDF
:1028C80023A0A70A8280B717004083A6470B1347A7
:1028D800F5FFF98E23AAD70A83A6070B558D23A8DF
:1028E800A70A83A6070A758F23A0E70A8280B7176D
:1028F800004003A7470B498F23AAE70A03A7070B42
:102908001345F5FF45BFB717004083A6470B13478C
:10291800F5FF758F23AAE70A03A7070A598D4DB754
:10292800B717004003A7470B498FEDB7914763EEF0
:10293800B70217D70000130727C48A05BA959C4128
:10294800BA978287B717004003A7470D1345F5FFCD
:10295800698F23AAE70C03A7070D698F23A8E70C43
:1029680003A7070C798D23A0A70C8280B717004016
:1029780083A6470D1347F5FFF98E23AAD70C83A624
:10298800070D558D23A8A70C83A6070C758F23A0C8
:10299800E70C8280B717004003A7470D498F23AA89
:1029A800E70C03A7070D1345F5FF45BFB717004010
:1029B80083A6470D1347F5FF758F23AAE70C03A7D6
:1029C800070C598D4DB7B717004003A7470D498F1E
:1029D800EDB7411122C43717004006C683472702C6
:1029E80003570702171400201304C4D193F7F70FF5
:1029F8004207418325ED1377F79F420793F7F707BF
:102A08004183F3260080A18A99CAF326008017160D
:102A180000202329D6CE1440DD9A73900680010049
:102A28000100B7160040130670052380C60413067C
:102A380080FA2380C6040100010093F7F70F238171
:102A4800F6022390E60223800604732700801C40C8
:102A5800A18BD98F739007809717002023A407CAEA
:102A680001000100B24022444101828093E7070837
:102A780013670740F3260080A18A99CAF3260080CD
:102A8800171600202320D6C81440DD9A73900680BC
:102A980001000100B7160040130670052380C60424
:102AA800130680FA2380C604010001002381F60280
:102AB8002390E60223800604732700801C40A18B24
:102AC800D98F739007809717002023AD07C20100A4
:102AD8000100294597000020E780C0B0F327008057
:102AE800A18B99CBF327008017170020232CF7C060
:102AF8001C40DD9B7390078001000100B717004060
:102B0800130770052380E704130780FA2380E7047E
:102B18000100010003D70702136707202390E7028B
:102B2800238007041DB7B717004003D58700420567
:102B380041819377050491EB9377F5013755E801C7
:102B4800130505803345F50282809377050C13073A
:102B580000046397E7009377F50137459C1CCDB7D0
:102B68002165130505D08280B7F700E08847CC4778
:102B78008280B717004083C7670493F7F70F93E67F
:102B8800270019E193F6D70FF3270080A18B1717B9
:102B98000020130727B799CBF327008017160020CA
:102BA8002322F6B61C43DD9B7390078001000100C9
:102BB800B7170040130670052380C704130680FA70
:102BC8002380C704010001002383D704238007045E
:102BD800F32600801C43A18BD58F7390078097172D
:102BE800002023A107B2010001008280F3270080A2
:102BF800A18B971600209386E6B099CBF327008027
:102C0800171700202320F7B09C42DD9B73900780A4
:102C180001000100B7170040130770052380E7047F
:102C2800130780FA2380E7040100010003C7670443
:102C3800136707012383E7042380070473270080B1
:102C48009C42A18BD98F739007809717002023ABE4
:102C580007AA010001008280B7270040C8C70947BA
:102C68002380E70011472380E7008280B7270040D0
:102C780023A6A74009472380E74011472380E74060
:102C88008280411122C406C62A84713D2947B307B0
:102C9800E502B2408D83B3D7870222449507B3D7A4
:102CA800E70237370040C207C1832316F7404101C6
:102CB8008280056541111305052C06C6D937B7373B
:102CC8000040130770F82381E7400D47A381E740D0
:102CD80013070004A380E74005472387E740B24075
:102CE8004101828037370040834727401A0593F710
:102CF800F703C98F93F7F70F2301F7408280B7379F
:102D0800004003C7174019C9D98DA380B74003C72E
:102D18000740136787002380E740828093C5F5FF4B
:102D2800F98DA380B7408280B73700402147B73676
:102D3800004091E1828003C6B740E30CC7FE050559
:102D48000346F5FFFD15C2052384C640C181D5B7EA
:102D58008147B736004003C7A64013960701418252
:102D68001377F70F19E33285828003C6864033074D
:102D7800F50085072300C700F9BFCC41411106C6FD
:102D8800328503C6150083C5050022064D8E42060E
:102D98008D654186138875A2630C0611634BC804C0
:102DA800138845A26300060D634AC800938535A2BF
:102DB8006301B6082390060029464DA0138855A242
:102DC8006305060D938565A2E316B6FEC1451D464B
:102DD80063E6E5084546198E63F3C7003E86B707E4
:102DE80004002390C600FC4797C500009385057B27
:102DF8009DA0138895A263030611634E060D1388E0
:102E0800A5A263000613938505A5E315B6FA9945AF
:102E18001D4663E5E504198E63F3C7003E86B707D0
:102E280004002390C600FC47971500209385058170
:102E38001DA09D451D4663E3E5022146198E63F3F7
:102E4800C7003E86B7070400FC472390C6009715C5
:102E580000209385658BBA9582970146B2403285EA
:102E680041018280AD451D46E3EAE5FE3146198EF3
:102E780063F3C7003E86B70704002390C600FC47EB
:102E880097C5000093854575F9B7B1451D46E3E739
:102E9800E5FC3546198E63F3C7003E86B707040084
:102EA8002390C600FC4797C500009385E57365B776
:102EB800C1451D46E3E4E5FA4546198E63F3C700AC
:102EC8003E86B70704002390C600FC4797C500005C
:102ED8009385056E49B7C1451D46E3E1E5F84546CA
:102EE800198E63F3C7003E86B70704002390C60017
:102EF800FC4797C5000093852570B1BFC1451D46A5
:102F0800E3EEE5F44546198E63F3C7003E86B7073E
:102F180004002390C600FC4797C500009385856A86
:102F28001DBFB5451D46E3EBE5F23946198E63F33F
:102F3800C7003E86B70704002390C600FC4797C524
:102F480000009385A56401BFB707040003A3071316
:102F5800970600209386862D4146CD45170500200B
:102F68001305C51902832D455DEB03C50500094707
:102F78006313E50A3285D041011106CE03471600D6
:102F88000346060041682207518F130628FE630294
:102F9800C7066369E6000518630307032390060064
:102FA8002945A9A0130648FE6301C7061518E317AB
:102FB80007FF15473E866371F704154635A8B547E0
:102FC8002390F60095679387A75A2310F100970777
:102FD80000209387677A83C7070035468A852301CF
:102FE800F100B7070400FC4782970145F2400561EC
:102FF80082803E8691C305462390C600B707040029
:103008004206FC474182CC45C5B729473E86E37551
:10301800F7FE2946D5B723900600054582808280B1
:1030280083C7850093F70702F9E7411106C622C452
:1030380026C24AC003C9050009432E888547631B79
:10304800690203A345003284B6848347130003430F
:103058000300A207B3E767004163130E13FE638200
:10306800C7030D13638F67040D68130828906389DD
:103078000707A947B2402244924402493E854101CC
:103088008280AD4765FB1307400FB547E364D7FE61
:10309800B7070400FC470325C8001306400FA285A4
:1030A80082970149970700209387076898438147CB
:1030B80071D3184361D32686A2854A850297814732
:1030C80055BFAD4745FB1147B547E365D7FAB70785
:1030D8000400FC470325C8001146A2858297D9B78A
:1030E800B7070400224403A34714B240924402499C
:1030F800854741010283A1473E858280C167F91750
:10310800630FF504411122C406C626C285472A84E6
:103118006398F502B704040083A7841322859705F2
:1031280000209385A55F82972285224403A38413F8
:10313800B2409244970500209385855D4101028342
:1031480089476399F500B707040083A7070B8545EE
:10315800829769D1B24022449244410182808280A0
:10316800411122C437040400832784134AC04169EB
:1031780006C626C2970500209385455AAA841305DA
:10318800F9FF829783278413970500209385455874
:103198001305F9FF82978327C40A17050000130552
:1031A80025F6858882979DC0032304132244B240E4
:1031B80092440249970600209386061A4146C9455B
:1031C800170500201305450741010283B240224438
:1031D8009244024901454101828019C597070020A0
:1031E80023A4A75401458280454582801147636620
:1031F800A70A97C60000938666410A0536951841C6
:10320800411106C63697AE87B28502871307400F6D
:103218006145639DE700B7070400FC471306400FAC
:10322800170500201305055882970145B240410152
:10323800828005476145E39BE7FEB7070400FC472A
:103248000546170500201305E54CF9BF11476145F0
:10325800E39EE7FCB7070400FC471146170500206A
:103268001305854BD1B729476145E391E7FCB707BB
:103278000400FC472946170500201305E5616DB7D2
:1032880015476145E394E7FAB7070400FC4715467C
:10329800170500201305C54841BF09458280411123
:1032A80026C2B704040083A7C41322C44AC006C6B2
:1032B8002E84970500209385A5452A89829705893C
:1032C80005C597070020938727F783D7A702A2850C
:1032D80003A3440D2310F4002244B24092444A85CB
:1032E8000249014641010283B24022449244024904
:1032F800494541018280411122C437140040832787
:10330800840C06C68D4593E707022324F40C832713
:10331800840C1305000293E707042324F40CEFF050
:10332800EFE08D4513050004EFF04FE08327C40C50
:10333800B24093E707022326F40C8327C40C93E7D3
:1033480007042326F40C224441018280B54763ED2B
:10335800A70A411122C406C626C24AC01704002083
:103368000344A47725C09307F5FF93F7F70F314778
:103378006360F706B1473304F402930780035114DE
:1033880022951374F50F63EF8702B714004083A7E3
:10339800840C13054006014993E7070423A4F40CA1
:1033A80097F0FF1FE780002483A7C40C130560096A
:1033B80093E7070423A6F40C97F0FF1FE780802209
:1033C800634A8900B2402244924402494101828002
:1033D800014465BF83A7840C13056009050993E7B9
:1033E800070223A4F40C97F0FF1FE780A01F83A710
:1033F800C40C1305600993E7070223A6F40C97F0A1
:10340800FF1FE780201E6DBF828041119396250023
:10341800AA852D4506C697000020E7808097B24010
:10342800014541018280411126C29394250022C49E
:103438004AC02A843289A686AA850146254506C639
:1034480097000020E780E094A6864A86A285294551
:1034580097000020E780E093B2402244924402495A
:10346800014541018280011122CC06CE371400406B
:1034780026CA4AC84EC652C483447405034AB405D2
:103488008349840503499405EFE03FFB8347A4057E
:1034980093F4F40F137AFA0F93E71700230DF4044B
:1034A80093F9F90F1379F90FB717004003C7A70568
:1034B800058B6DFF03D5C705A38D4705238C3705FD
:1034C800A38C2705A38B9704F2406244D244424957
:1034D800B249224A0561828041119397050122C4AD
:1034E80006C626C2C1872E8463DC0700B704040021
:1034F800FC54829719C1BC5482972165218D1DA067
:1035080093F715008DC7EF702030B7070400BC4F44
:1035180013060014854517050020034525218297C9
:1035280013451400B240224492444101828093F72B
:103538004500638607129704002083C464208547EA
:10354800639DF40E97070020238C071EEF70600A16
:103558009707002083C707359706002083C696344F
:10356800A207B697170700200347E733A207B30659
:10357800F7001706002003461633A2069705002019
:1035880093854532B2966311950637A6F700130660
:10359800D65FB6846384C602937657001546639750
:1035A800C600519B97060020238FE62E83C4250072
:1035B800BD88170700202308972EBE94EFF02FAB85
:1035C8009307007D3355F5029707002093878716E8
:1035D8009C43638A97029707002023A997069707B9
:1035E800002023A7A714B1A037A6F70017280020AA
:1035F8000348D86559451306D65FE30CA8F8639EBF
:10360800C602B68465BF9707002093876712984360
:103618006377A700B307E5408D46E3EEF6FA637AD1
:10362800E500D56793870718998FAA970D47E36434
:10363800F7FA9707002023AF970EB7170040A3812A
:103648000704B7070400BC4F13060005914517058A
:1036580000200345A50D829713454400E1B593F773
:1036680005018DC3EF10C065B7070400BC4F1306F2
:10367800000AC145170500200345450B82971345ED
:1036880004014DB59397150163D5070297F0FF1F05
:10369800E780C011EF20203CB7070400BC4F130699
:1036A80000149165170500200345450882971165A8
:1036B800B1B5939725010145E3D607E6B7040400A1
:1036C80083A7C41E8297BC4C37F60200130606E097
:1036D800896517050020034565058297096539BD89
:1036E8001D71A2CC370404005C5C485886CE49465C
:1036F80097C500009385C5F2829711E101A0B7F63E
:1037080000E0795798CAFD57DCCA0567B7E700E0BB
:1037180023A0E7101306F00290C223A0E7180100C7
:1037280001003C441306C003814548088297970767
:1037380000209387A7503ECA8967231CF10093078E
:10374800B00F2312F1029547A301F1028547230325
:10375800F1029307D0032304F102A167938707E0DE
:103768003ECE97070000938787CABEC4970700001C
:103778009387A7CBBEC6B547A305F102B7F50700E7
:1037880097F7FFFF9387873E3EDA81469707000049
:103798009387A7CD7000E10519453EDE97F0FF1F1E
:1037A800E780205F58088147994670003E96034697
:1037B800060085070507A30CC700E398D7FED24784
:1037C80091C70357810185676373F70001A0B707A5
:1037D800040083A7470A4808829711C101A0F64050
:1037E800664425618280411126C2B704040083A77C
:1037F800040806C622C417050000130525CE8297C3
:1038080017040020130484F22300A4008528EF1075
:103818001021112EEF504005EF606011C5282D2BA7
:10382800D93CEF200035EF107051BC4C0345040023
:1038380037F60200130606E089658297BC4C0345FB
:1038480004001306000AC1458297BC4C03450400D6
:103858001306001485458297BC4C034504001306E3
:1038680000149165829703450400224403A384054C
:10387800B24092444146914541010283411106C636
:10388800F3270080A18B970600209386A6E799CBA3
:10389800F3270080170700202326F7E69C42DD9BCC
:1038A8007390078001000100B717004013077005E7
:1038B8002380E704130780FA2380E704010001004E
:1038C80003C7F70213677700A387E702238007047B
:1038D800732700809C42A18BD98F7390078097072C
:1038E800002023A107E20100010081471305407E63
:1038F8000147814605468545EFE03FC0B70704000C
:10390800B24003A34707014541010283371700402E
:103918008327870C4111896606C6D58F2324F70CA7
:1039280081450965EFF08F8013058025EFF00FB40E
:10393800372700408347274093E717002301F740C4
:10394800B240B7E700E03707000123A0E7104101C4
:1039580082809707002083D787DEA5EFB71700403E
:1039680083A7470C13972701635407029707002082
:1039780083D727DD8507C207C1831307C012637485
:10398800F7009307D01217070020231CF7DAA9A025
:103998008547170700202314F7DA17070020231399
:1039A800F7DAB717004083A7470C13972701634A34
:1039B80007149707002083D7E7D88507C207C18374
:1039C8001307C0126364F71017070020231CF7D6EB
:1039D80021A00547E387E7FC17070020035727D6F0
:1039E80089476311F714170700200357A7D59307D2
:1039F800C01263F6E70097070020239507D417073E
:103A08000020035707D49307C01263F6E70097070F
:103A18000020239807D29705002083D585D2A9478F
:103A280063FDB70E170600200356C6D113073002F0
:103A38006366C7006373B70E63F1C70E17050020EE
:103A4800034515D01357350097060020938646E6A0
:103A5800369783470700860793F7F70F6374B60016
:103A680093E717002300F700F94763FAA7029707BF
:103A7800002083D7A7CCC1EF9C421707002023233F
:103A8800F7E2894717070020231AF7CA854717075F
:103A980000202307F7CA97070020A38307CA9707C0
:103AA800002083C7F7C9850717070020A30AF7C8AE
:103AB80097070020239507C885471707002023127A
:103AC800F7C897070020239F07C682809307D01264
:103AD800170700202318F7C609479707002083D740
:103AE800E7C5638AE7000D47E398E7EE97070020EC
:103AF800239607C4D5B58547170700202310F7C4B8
:103B0800E1BD894717070020231BF7C2F1B58D4790
:103B1800170700202314F7C2BDBF97070020A38111
:103B280007C279B782808145130500086FE0BFD5C9
:103B3800B717004003A7870C411122C426C24AC008
:103B480006C61367870023A4E70C03A7C70C2A89B6
:103B580015451367270023A6E70C97F0FF1FE7809A
:103B680060A8A144371400408327840C094593E7D3
:103B780027002324F40C97F0FF1FE780A0A6937773
:103B88001900B9C38327C40C93E717002326F40C44
:103B9800154597F0FF1FE780E0A48327C40CFD14A8
:103BA800194593E727002326F40C93F4F40F1359CF
:103BB800190097F0FF1FE780E0A2DDF4B24022442D
:103BC80092440249410182808327840C93E71700BD
:103BD8002324F40C75BFB54763EFA7029D4763F82C
:103BE800B700E115050593F5F50F1375F50F854732
:103BF800B395B70017070020130747CCE205B307B2
:103C0800A700E1858387070001CADD8D93F5F50FCD
:103C18002A972300B700828093C5F5FFFD8DFDB775
:103C280097070020938787C923A0070023A20700CE
:103C380023A40700239607008280411122C4371469
:103C480000408327C40C26C206C693E78700AA84CF
:103C58002326F40C1305400697F0FF1FE780809891
:103C68008327840CB240268593E787002324F40C2D
:103C78002244924441016DBD41114AC02A890D4533
:103C880006C622C426C2553F130500047D37130516
:103C9800000C65370144B944B307890003C5070020
:103CA80005047935E31A94FE17250020034555FBD2
:103CB8006937371700408327C70CB240224493E77F
:103CC80087002326F70C9244024941018280170598
:103CD80000201305A5BE4DB7B717004003A7870CF2
:103CE800411106C61367170023A4E70C03A7870C26
:103CF8008D4505451367270023A4E70C03A7870C08
:103D08001367870023A4E70CEFE05FC28D450945E0
:103D1800EFE0DFC121458D45EFE05FC1B2400945C5
:103D2800410117F3FF1F6700C38C411106C6170531
:103D380000201305A5B8232005002322050023240D
:103D4800050023160500EF10105CB240170500208F
:103D58001305C5B641010DB7411122C437140040FF
:103D68008327840A06C6216793E707202324F40AD9
:103D78008327840C8545216593E707202324F40CC9
:103D88008327840AD98F2324F40AEFE0DFAF85451F
:103D980013050010EFE03FAF914513050020EFE059
:103DA8009FAE914513050020EFE05FB8EFE07FF08C
:103DB80005651305052CEFE0DFEC8327C40C0145EE
:103DC80093E707202326F40CEFE0DFF19D45054536
:103DD800EFE0FFF2B2402244B7E700E037070008FF
:103DE80023A0E71041018280014781476344B7005F
:103DF8003E858280B306E50083C606000507B697B0
:103E080093F7F70FE5B7A94797260020A384F6E4B0
:103E1800B767020B79719387A76A172700201307E2
:103E2800E7E13EC606D622D402C802CA02CC230E57
:103E380001009707002083C7E7C9BA86C1E31726A0
:103E480000200346E6DF054701C629476376C70019
:103E5800172600202306E6DE03C74600230AE100F2
:103E68009726002083C606DE0947639DE60E0D47A8
:103E7800A30AE1000547638BE7106387070E0D4728
:103E8800639FE706170700200347A7C6AD476305EA
:103E9800F70099472307F1009547230AF1008D475A
:103EA800230BF100EF50D040A30BA100EF50507648
:103EB800A9473345F502230CA10091A00546639656
:103EC800C702172600200346C6D701EA1727002095
:103ED8002309F7D603C7660051B72947E37CC7FE15
:103EE80017260020230FE6D4F5B78946E39AD7F6BC
:103EF80083477700230AF100D147A30AF100970707
:103F080000209387E7BE83D60700130740503E84FE
:103F1800639DE600EF60806E11C59707002083C798
:103F280067BB81C799472307F1008317A401654739
:103F3800B545B3C7E7021305E100A30CF1006D35E1
:103F4800A30DA100371700408327870C6800C545DB
:103F580093E707202324F70CEFE01FDDB25022542B
:103F680045618280194729B717070020034767B8BA
:103F7800AD476315F70099472307F1008947230BDD
:103F8800F100EF50F032A30BA10095BF17070020F6
:103F9800034727B6AD476315F70099472307F10094
:103FA8008947230BF100A1BFA94717270020A303C6
:103FB800F7CAB767060B79719387A76A22D43EC6FA
:103FC80006D602C802CA02CC230E010097070020B9
:103FD80083C747B017240020130444C6C5EB17272E
:103FE80000200347E7C5854701C7A94763F6E700EF
:103FF800172700202306F7C483474400230AF1004B
:10400800EF60C05F8947230BF10009C5EF50502AC4
:10401800A30BA100170700200347C7AB8947631507
:10402800F70A172700200347D7C1854701C7A947C3
:1040380063F6E70017270020A305F7C0834774003D
:10404800230AF100D147A30AF100970700209387BC
:1040580027AA8397A7016547B545B3C7E7021305A4
:10406800E100A30CF1004933A30DA100371700406C
:104078008327870C6800C54593E707202324F70C9E
:10408800EFE09FCAB2502254456182800547639F82
:10409800E702172700200347C7BA11E717270020B0
:1040A8002301F7BA21A0A947E3EAE7FE83476400A2
:1040B800172700200347A7BA230AF100954763157D
:1040C800F7008947230BF1009947B5BF0D47E393E4
:1040D800E7F41547230BF100230AE100EF50501DC8
:1040E800A30BA100EF50D052A9473345F502230C8A
:1040F800A1000DB7A94717270020A30DF7B4B7678C
:10410800060B79719387A76A3EC606D602C802CA0B
:1041180002CC230E01009707002083C7A79B17270F
:1041280000201307A7B1ADE79726002083C646B144
:10413800854781C6A94763F6D700972600202381C3
:10414800F6B083474700230AF1009547A30AF10018
:10415800970700209387C7998397A7016547B545B7
:10416800B3C7E7021305E100A30CF100B539A30DAD
:10417800A100371700408327870C6800C54593E7DF
:1041880007202324F70CEFE03FBAB2504561828044
:10419800FD1793F7F70F0546E369F6FA972600200F
:1041A80083C626AA81EA97270020238CC7A88347BD
:1041B800670051BFA947E3FCD7FE9726002023825A
:1041C800F6A8F5B7A94717270020A305F7A8B767EA
:1041D800060B79719387A76A02CA3EC69307103007
:1041E800231AF10097070020938787908397A701E8
:1041F800654702CCB3C7E702B5451305E10006D60B
:1042080002C8230E0100A30CF100F93EA30DA10082
:10421800371700408327870C6800C54593E70720B8
:104228002324F70CEFE05FB0B250456182809727F6
:10423800002083C7B7A1FD1793F7F70F1307800274
:10424800E36BF72017B700001307C73E8A07BA9732
:104258009C43011122CC06CEBA972A848287034751
:10426800450097F7FF1F83C7174F631CF700EF4000
:1042780060309947631BF502914717270020A30771
:10428800F79C0347440097F7FF1F83C7973C631BBE
:10429800F7022285EF40002E9947631FF5009547E6
:1042A80017270020A304F79A31A82285EF40802C15
:1042B8009547E318F5FCC9B72285EF40A02B954731
:1042C800E30FF5FCF2406244056182800347450034
:1042D80097F7FF1F83C73748E316F7FEEF4080299B
:1042E8008547E311F5FE2AC697F7FF1FA386074601
:1042F800053AEF103002324597270020A388A7948B
:10430800D1B70347450097F7FF1F83C7D744E31B7F
:10431800F7FAEF4020268D476310F5021305F002E7
:10432800EFF0CF826244F240854717270020A30BA5
:10433800F79005616F6020452285EF40A02379DD65
:1043480051B70347450097F7FF1F83C7D740E31BC3
:10435800F7F6EF4020228D47E316F5F61305F00235
:10436800EFE0DFFE85472DBF0347450097F7FF1FA6
:1043780083C7773E6319F700EF40C01F8D4763146A
:10438800F500EF60C0380347440097F7FF1F83C765
:10439800372CE319F7F22285EF40C01D9547E31348
:1043A800F5F29727002083C7F789E39D07F0E947CF
:1043B80017270020A30CF788894717270020230315
:1043C800F78809B70347450097F7FF1F83C7B73832
:1043D8006312F702EF40001A8D47631DF5001305BD
:1043E800F002EFE0BFF6EF40A06CA1476318F5209C
:1043F800EF6060390347440097F7FF1F83C77725AD
:104408006317F7022285EF40E0168D476311F50226
:104418001305F002EFE09FF3EF406063A94733050F
:10442800F502972700202398A782EF50700D0347C5
:10443800440097F7FF1F83C7B7216310F70422854D
:10444800EF4040131DE91305F002EFE03FF0EF40A5
:104458000060A9473305F50297170020239DA77E22
:10446800EF40C05585476303F51C93178501E18725
:104478006386071A8947630EF51A0347440097F7BE
:10448800FF1F83C7E71C6310F7042285EF40800EE7
:104498001DE91305F002EFE07FEBEF40405BA94711
:1044A8003305F502971700202397A77AEF400051AC
:1044B8008547630BF51893178501E187638E071607
:1044C80089476306F5180347440097F7FF1F83C71A
:1044D8004718631CF7022285EF40C0099547631609
:1044E800F5021305F002EFE07FE6EFF06FF3EF401F
:1044F8000056A9473305F50297170020239DA77496
:10450800B94717170020A303F7740347440097F728
:10451800FF1F83C7E7136316F7042285EF40800562
:1045280095476310F504B717004083A7470A93F728
:10453800070285CB1305F002EFE05FE1EF40205161
:10454800A9473305F502971700202396A770D94786
:1045580017170020A30CF76E854717170020230BA9
:10456800F76E0347440097F7FF1F83C7770E631260
:10457800F7042285EF4000009547631CF502B71742
:10458800004083A7470AC18B8DC71305F002EFE0EF
:10459800FFDBEF50303FEF40804BA9473305F50272
:1045A800971700202399A76AF94717170020A30F28
:1045B800F7680347440097F7FF1F83C79709E3137A
:1045C800F7D02285EF30107B9547E31DF5CEB7175E
:1045D800004083A7470A93F70702E38507CE130530
:1045E800F002EFE0BFD6EF408046A9473305F50259
:1045F800971700202391A766FD475DB19717002004
:1046080083D76765E39607DEEF406044A947330523
:10461800F502971700202390A764E9BBEF50D0005C
:104628000545EF501001EF50005A81BDEF50A046EC
:10463800A9B5EF50A06A91B5EF50007F0545EF503E
:10464800407FEF50A04841B5EF506042ADBDEF50FC
:10465800606695BD0347450097F7FF1F83C7B70FEF
:10466800631FF700EF30107119E91305F002EFE04E
:10467800FFCDEF40C03D6315050EEF60C010034746
:10468800440097F7FF1F83C7D7FC631FF7022285F3
:10469800EF30506E15E91305F002EFE03FCB171726
:1046A80000200357675B930720036316F7009717EB
:1046B80000202393075AEF408039A9473305F502B4
:1046C800971700202399A7580347440097F7FF1F1F
:1046D80083C707F8631FF7022285EF30B06915E931
:1046E8001305F002EFE09FC6171700200357C756BF
:1046F800930720036316F70097170020239E07549B
:10470800EF40E034A9473305F502971700202394BA
:10471800A7540347440097F7FF1F83C777F3E313B2
:10472800F7BA2285EF301065E31E05B81305F002CD
:10473800EFE0DFC117170020035707529307200344
:104748006316F7009717002023980750EF40203092
:10475800A9473305F50297170020239EA74E9DB65B
:104768009717002083D7274FE39907F017170020E2
:104778000357874E930720036316F7009717002007
:10478800239C074CEF40A02CA9473305F502971747
:1047980000202392A74CE5B50347450097F7FF1F74
:1047A80083C777FB631DF700EF30D05C8D47631834
:1047B800F5001305F002EFE07FB9EF50D07C834796
:1047C800440017F7FF1F0347A7E86308F70017F728
:1047D800FF1F0347F7E7E317F7AE2285EF3090593D
:1047E8008D47E311F5AE97170020238D07469717DD
:1047F800002083C7D74781EB93074006171700208F
:10480800A307F746C1B497170020A38207465DBCEB
:104818000347450097F7FF1F83C7F7F36319F702AC
:10482800EF3050558D476314F5021305F002EFE0A1
:10483800FFB1A14717170020A30AF740EF40202136
:10484800A9473305F502971700202396A740971725
:10485800002083C7273FE38707A60347440097F74D
:10486800FF1F83C7F7DE631CF7002285EF309050E7
:1048780019E51305F002EFE07FADEF50E06B034759
:10488800440097F7FF1F83C7A7DCE31DF7A2228523
:10489800EF30504EE31805A21305F002EFE01FAB0E
:1048A8006244F24005616F5000679717002083C784
:1048B8006739A9CB9717002083C7C739A1E7834772
:1048C800450017F7FF1F0347B7D8631BF700EF3002
:1048D800704A19E51305F002EFE05FA7EF50C065D5
:1048E8000347440097F7FF1F83C787D6631CF70069
:1048F8002285EF30304819E51305F002EFE01FA5D7
:10490800EF5060610347440097F7FF1F83C7B7E480
:104918006313F7042285EF30F0458D47631DF502D8
:104928001305F002EFE09FA29717002083C7873195
:10493800B5C3EFF0EFAEA14717170020A308F73073
:10494800EF40E010A9473305F5029717002023949C
:10495800A730EF50504C0347440097F7FF1F83C719
:1049680057CFE311F7962285EF30D0409547E31BE8
:10497800F5941305F002EFE07F9D9717002083C799
:10498800672DE39107948547171700202304F72C18
:104998006FF05F93EF5090627DBF9717002083C739
:1049A800672AE1C78347450017F7FF1F034757CA20
:1049B8006310F702EF30103C01ED9717002083C712
:1049C800272999E71305F002EFE05F98EF50C056EA
:1049D8000347440097F7FF1F83C787C76311F70290
:1049E8002285EF30303901ED9717002083C747261D
:1049F80099E71305F002EFE07F95EF50C0510347A8
:104A0800440097F7FF1F83C7D7C46310F7062285B2
:104A1800EF30503695476310F5021305F002EFE0CA
:104A2800FF928D47171700202304F7228547171791
:104A38000020230DF7200347440097F7FF1F83C783
:104A480057C16314F7022285EF30D0328D47631EB9
:104A5800F5001305F002EFE07F8F971700202389F8
:104A6800071E971700202383071E0347440097F764
:104A7800FF1F83C757CEE317F7842285EF30902FA7
:104A88008D47E311F5841305F002EFE03F8C97178B
:104A98000020238F071A8567938707801717002040
:104AA8002316F71A65B10347450097F7FF1F83C719
:104AB80037BA6310F702EF30F02B01ED971700209B
:104AC80083C7071999E71305F002EFE03F88EF5015
:104AD800A0460347440097F7FF1F83C767B76311D2
:104AE800F7022285EF30102901ED9717002083C7C0
:104AF800271699E71305F002EFE05F85EF50A04114
:104B08000347440097F7FF1F83C7B7B4E31FF7F4C1
:104B18002285EF3030269547E319F5F41305F002A6
:104B2800EFE0DF829306001001468145254597E0B6
:104B3800FF1FE780002697E0FF1FE780609535B7E5
:104B48000347450097F7FF1F83C7F7C06311F704B2
:104B5800EF3050228D47631CF5021305F002EFE099
:104B6800EFFEEF30F04A971700202383070EEF502F
:104B7800C02DA14717170020A30AF70CEF30306D9E
:104B8800A9473305F502971700202396A70C03477A
:104B9800440097F7FF1F83C7D7AB6316F706228534
:104BA800EF30501D8D476318F5001305F002EFE054
:104BB800EFF9EF50202A0347440097F7FF1F83C7F8
:104BC80057A96312F7042285EF30D01A9547631C62
:104BD800F5021305F002EFE06FF7EF307043971717
:104BE800002023870706EF504026A147171700200B
:104BF800A30EF704EF30B065A9473305F502971700
:104C08000020239AA7040347440097F7FF1F83C790
:104C180037A4631CF7002285EF30D01519E513057A
:104C2800F002EFE0AFF2EF50007D0347440097F742
:104C3800FF1F83C7E7A16317F7E82285EF309013BA
:104C4800631205E81305F002EFE04FF06244F2400A
:104C580005616F50A05A8280914763E1A70617B794
:104C68000000130767A70A053A951C41BA9782877F
:104C7800B717004003A5470A05898280B717004087
:104C880003A5470A1981CDBFB717004003A5470AF6
:104C98001181DDB7B717004003A5470A1581E9BFA1
:104CA800371700408327470A0545C18B89E7032545
:104CB800470A158105891375F50F828001458280A1
:104CC800597186D6A2D4A6D217170020034797F9A0
:104CD80085476319F70897F7FF1F83C7E7A71307E7
:104CE80020036375F706A54717170020A300F7F6FA
:104CF80097F7FF1F93878795944337A7F700130704
:104D0800D75F3E846395E60697F7FF1F83C7F7DDF5
:104D18000547639EE704171700202306F7F41717C3
:104D280000202301F7F49717002083C7A7F1B9C71C
:104D380097170020238807F0EF50F024A54717178E
:104D48000020A305F7F0EF206012F1A0850793F784
:104D5800F70F17F7FF1F2301F7A013073003E39995
:104D6800E7F851B797F7FF1F2388079E51B7171722
:104D78000020034747EF8547E307F7FA9717002016
:104D880083C7D7EC130790026367F70817B70000CB
:104D98001307C7958A07BA979C43BA97828717F56E
:104DA800FF1F0345759BF14763EFA7080D443305C3
:104DB80085028545EF00F05C17F5FF1F0345D5997F
:104DC8003305850285450505EF00B05B17F5FF1F24
:104DD800034595983305850285450905EF00705A06
:104DE80017F7FF1F03475797F94763FBE70097F744
:104DF800FF1FA38307968D4717170020A308F7E422
:104E080097F7FF1F9387579583C70700850717F7FD
:104E1800FF1FA303F7949717002083C7B7E363998D
:104E280007329717002083C777E20547639CE7326C
:104E38002654B6509654FD5717F7FF1F2328F780BE
:104E480065616FE0DFE80D151375F50F8547E3E938
:104E5800A7F8EFE0FFDC69B781456D45EF00D05A50
:104E6800A5450145EF00505AC9450145EF00D05905
:104E7800ED450D45EF00505917F7FF1F0347D78D34
:104E8800A947E3FFE7F6EFE0BFD9EF00B048854751
:104E980017170020A30CF7DA97F7FF1FA38E078ACE
:104EA80085B717F4FF1F1304348B97F7FF1F83C7C9
:104EB800B78A7947A2846365F70281453145EF00D7
:104EC800B054A5454545EF003054C9456545EF0048
:104ED800B053ED457945EF003053834704003DB7A3
:104EE800851793F7F70F75476364F70681455D45A6
:104EF800EF009051A5454D45EF001051C94531458A
:104F0800EF009050ED457945EF00105017F7FF1F5F
:104F180003479784FD47631AF7029307F00F17F7C3
:104F2800FF1F2327F7BE17F7FF1F2325F7BE17F725
:104F3800FF1F2323F7BE17F7FF1F2321F7BE97F79D
:104F4800FF1FA38F07B8EF30B00C83C704007DBDE7
:104F5800EFE01FCDEF00103C854717170020A3078F
:104F6800F7CE97E7FF1FA389077E75B517E4FF1FE4
:104F78001304947E97E7FF1F83C7177E7947A2849F
:104F8800636DF70081457945EF001048A545314527
:104F9800EF009047C94561451DBF138717FE13777A
:104FA800F70FF546E3E6E6FA7D47639EE70097F7D5
:104FB800FF1F83C767B393B7170017F7FF1F2305B2
:104FC800F7B2EF30F004ED4517F5FF1F0345C5B103
:104FD800EF0090439DBFEFE0BFC4971700202383E5
:104FE80007C6EF4090206818C921EF5040171306F4
:104FF8004002AA846C180A85EF80400EA6850A85AF
:10500800EF00D058EF00103197F7FF1F938747B094
:1050180018409C47E391E7E0FD177557E36DF7DE0D
:10502800EF50E06ECDBBEF00102E8547171700201C
:10503800230AF7C0EF10401BE30F05DCA147094521
:1050480017170020A304F7C097F7FF1FA38207AA2A
:10505800EFE0CFAFEFE05FF5EF30701FA947330502
:10506800F502971700202398A7BE75B3EF00B02963
:10507800EF10E01DE30105DAE54717170020230EBE
:10508800F7BC3145AD4717170020A301F7BC9717A8
:105098000020238907BAEFE06FABEFF0AF85A5BB1F
:1050A800EF1040558DBBEF103036B5B3EF1000212F
:1050B800E30305D6EF4070133545EFE02FA9A1BBF8
:1050C800EF10F07789BBEF204004B1B3EF206010F8
:1050D80099B3EF20201381B3EF20A0172DBBEF2049
:1050E800E01B15BBEF20601E3DB3EF20202E25B33B
:1050F800EF2080300DB3EF20004931BBEF20E06690
:1051080019BBEF20C06A01BBEF20B00629B3EF201E
:10511800D01F11B3EF20F032FDB9EF20303EE5B9D2
:10512800EF20F051CDB9EF20D058F5B1EF20106441
:10513800DDB1EF20F06FC5B1EF20307BE9B9EF307A
:10514800C004D1B9EF30E015F9B1EF308022E1B1F8
:10515800FD1793F7F70F17170020A30DF7AEE39984
:1051680007CCC1B19717002083C7C7AD6385E70295
:10517800C9CF8946E39ED7CA97F6FF1F83C64697CD
:105188008D476389F6089717002083C767ADA5E7A1
:10519800EFF04F8371B99716002083C6C6AA094756
:1051A800639BE60097F7FF1F83C79794E38207C8BE
:1051B800EFE05FF4B5B997F6FF1F83C6A691639C2D
:1051C800E60017F7FF1F0347A792D1476305F702C9
:1051D800EFE09FDDB1B99716002083C646A81547B2
:1051E800638EE60017F7FF1F034787907D17137735
:1051F800F70FE3EFE7FCEFE01FC11DB91717002019
:105208000347F7A5E319F7FEE1B797F7FF1F83D721
:10521800278E69BF971700202384E7A4E9BF0111EF
:1052280085451305100706CE22CC26CA4AC84EC6A5
:1052380052C417F4FF1F13046484EFD0CFE422850F
:1052480097E6FF1F83C636510146970500009385F0
:10525800E5A0EF30E02B97E9FF1F9389697F4E8522
:1052680097E6FF1F83C6F63E014697050000938523
:10527800E59EEF30E02917E9FF1F130929754A85D4
:1052880097E6FF1F83C6C63C014697050000938535
:10529800E59CEF30E02797E4FF1F9384E4752685AB
:1052A80097E6FF1F83C6D63A014697050000938507
:1052B800E59AEF30E02517EAFF1F130AAA7697E66A
:1052C800FF1F83C60639528501469705000093855E
:1052D800E598EF30E023228517F6FFFF130666F501
:1052E8008D45EF30A028228517F6FFFF130666F4D8
:1052F8009545EF30A027228517F6FFFF130666F3C2
:105308009945EF30A026228517F6FFFF130666F2AF
:105318008145EF30A025228517F6FFFF130666F1B9
:105328008545EF30A0244E8517F6FFFF130666F07B
:105338008D45EF30A0234E8517F6FFFF130666EF65
:105348009545EF30A0224E8517F6FFFF130666EE4F
:105358009945EF30A0214E8517F6FFFF130666ED3D
:105368008145EF30A0204A8517F6FFFF130666EC4B
:105378008D45EF30A01F4A8517F6FFFF130666EB31
:105388009545EF30A01E4A8517F6FFFF130666EA1B
:105398009945EF30A01D4A8517F6FFFF130666E909
:1053A8008145EF30A01C268517F6FFFF130666E837
:1053B8008D45EF30A01B268517F6FFFF130666E71D
:1053C8009545EF30A01A268517F6FFFF130666E607
:1053D8009945EF30A019268517F6FFFF130666E5F5
:1053E8008145EF30A01817F6FFFF130686E49545B0
:1053F8005285EF30A0172285EF3040184E85EF30E8
:10540800E0174A85EF3080172685EF302017528540
:10541800EF30C01637551200130505F8EFD0DF83BB
:10542800372700408347270093E717002301F70039
:10543800F2406244B7E700E0416723A0E710D24496
:105448004249B249224A05618280397106DE22DC6E
:10545800EF7090702A849307A100380093066100CA
:105468005000930521000A85EFD0AFAA83570100A9
:1054780068003ED0835741003ECC835721003ECE82
:10548800835761003ECA835781003EC88357A100F5
:105498003EC6EF70706C3305A440F250625497E733
:1054A800FF1F23A7A762216182805D718147A2C483
:1054B80001489306A10030002A8478003EC893056D
:1054C80061009307E100480086C642CAEFD06FA486
:1054D8008357410068083ED8835781003ED48357DC
:1054E80061003ED68357A1003ED28357C1003ED00B
:1054F8008357E1003ECEEF70306697E7FF1F938732
:10550800A75A9C5713D7F7413E95BA95B337F5007C
:10551800AE972AC808083ECAEF707013AA8513060A
:1055280040022285EF70903B2285B6402644616197
:10553800828017E5FF1F1305655701BF3717004025
:105548008327870A8D45194593E767002324F70ABF
:105558006FD06FB3411122C4371400408327840AE7
:1055680006C6154593E747002324F40A97D0FF1F82
:10557800E78040078327840A154593E727002324FB
:10558800F40A97D0FF1FE780E0058327C40A154572
:1055980093E727002326F40A97D0FF1FE7808004AB
:1055A8008327C40AB240154593E747002326F40A27
:1055B8002244410117D3FF1F6700C302411122C4CF
:1055C800371400408327C40A06C6154593E74700E9
:1055D8002326F40A97D0FF1FE780C0008327C40A58
:1055E800154593E727002326F40A97D0FF1FE78085
:1055F80060FF8327840A154593E747002324F40AAC
:1056080097D0FF1FE78000FE8327840AB240154524
:1056180093E727002324F40A2244410117D3FF1FEC
:10562800670043FC411122C4371400408327C40A91
:1056380006C6154593E747002326F40A97D0FF1FAF
:10564800E78040FA81450945EFD0EFA38327840A14
:10565800154593E747002324F40A97D0FF1FE780F6
:1056680060F89307B00F371700408326470A898AE6
:1056780095E28327C70A154593E747002326F70ACB
:1056880097D0FF1FE78000F609458D45EFD0AF9F03
:10569800014539A0FD1793F7F70FE1FB05370545DD
:1056A800B240224441018280411122C43714004093
:1056B8008327C40A06C6154593E747002326F40A3C
:1056C80097D0FF1FE78000F28327C40A154593E7A8
:1056D80027002326F40A97D0FF1FE780A0F083272E
:1056E800840A154593E747002324F40A97D0FF1F3F
:1056F800E78040EF8327C40AB240154593E7470087
:105708002326F40A2244410117D3FF1F670083EDC3
:10571800411122C4371400408327C40A06C6154520
:1057280093E747002326F40A97D0FF1FE78080EB12
:105738008327840A154593E727002324F40A97D082
:10574800FF1FE78020EA8327840A154593E747006F
:105758002324F40A97D0FF1FE780C0E88327C40AF0
:10576800B240154593E747002326F40A2244410135
:1057780017D3FF1F670003E7411122C426C24AC09E
:1057880006C62A89A144371400408327C40A154550
:1057980093E747002326F40A97D0FF1FE78080E4A9
:1057A80093178901E18763DF07048327840A93E756
:1057B80027002324F40A154597D0FF1FE78080E2CD
:1057C8008327840AFD14060993E747002324F40A73
:1057D800154593F4F40F1379F90F97D0FF1FE7805D
:1057E80060E0C5F48327C40AB240924493E74700B7
:1057F8002326F40A224402491545410117D3FF1F05
:10580800670043DE8327C40A93E727002326F40AA8
:105818005DB7371700408327C70A011106CE22CC8F
:1058280026CA4AC84EC693E747002326F70AAA891C
:10583800154597D0FF1FE780E0DA81450945EFD08D
:105848008F84A1440144371900408327890A1545EC
:10585800060493E747002324F90A97D0FF1FE7803F
:1058680060D88327490A1374F40F898B99C313648A
:105878001400154597D0FF1FE780C0D68327C90AB3
:10588800FD14154593E747002326F90A93F4F40F0E
:1058980097D0FF1FE78000D5CDF88D450945EFC0AB
:1058A8009FFE639B0900AD352285F2406244D244D5
:1058B8004249B24905618280C53BFDB7411106C620
:1058C80022C42A84EFF01FC91305C00E7535993B11
:1058D80022855D35813BEFF07FCE2244B2400545FD
:1058E800410117D3FF1F6700C3D0011106CE2EC692
:1058F80022CC2A84EFF01FC61305C00EB53DEFF089
:105908007FD21365040C8D3DEFF0DFD1B2452E85B3
:10591800A535EFF03FD1EFF07FCA6244F24005456C
:10592800056117D3FF1F6700C3CC011106CE22CC37
:105938002A84EFF03FC21305C00E3D3DEFF09FCE25
:1059480013650408153DEFF0FFCDEFF03FC7EFF00A
:105958007FC01305D00E0D35EFF0DFCC0145553D66
:105968002AC6EFF0BFC5F240624432450561828025
:10597800011106CE22CC2A84EFF0DFBD1305C00E3C
:10598800E53BEFF03FCA2285C53BEFF0BFC9EFF01A
:10599800FFC2EFF03FBC1305D00EF93BEFF09FC8F4
:1059A8000545853D131485000545A535498C0145F8
:1059B8008D352204418D2AC6EFF05FC0F240624463
:1059C8003245056182804111194506C622C426C2A6
:1059D800F535054597D0FF1FE780A0C117E4FF1FE5
:1059E8001304A4D79304200335458137198113750F
:1059F800F50F19C1054535A0054597D0FF1FE7806C
:105A080040BF83470400850793F7F70F17E7FF1F89
:105A18002305F7D4E3FAF4FC97E7FF1F238F07D297
:105A28000145B240224492444101828017E5FF1F9C
:105A3800034545C21365050451B54111054506C620
:105A480097D0FF1FE780E0BAB24097E7FF1F238394
:105A580007C041018DBF97E7FF1F83C717D01547C0
:105A6800636EF70817A700001307C7D28A07BA970B
:105A78009C43411122C406C6BA9717E4FF1F1304BA
:105A8800D4CD82875D3F1DE997E7FF1FA38707CC29
:105A9800FD5717E7FF1F231AF706B24022444101BA
:105AA8008280894717E7FF1FA309F7CAFDB7930547
:105AB800000401451D3DFD450545053D834704009E
:105AC8008507CDB79147F9BF9537CDBF13051003AB
:105AD8004535B707F000E98F014781EB930740068A
:105AE8003345F50213170501418797E7FF1F239EEA
:105AF800E70097E7FF1FA38207C645B797E7FF1F91
:105B0800A38D07C482809307F0F817070020A30924
:105B1800F714828097E7FF1F83C7F7FC1D47636769
:105B2800F70417A70000130767C88A07BA979C43AA
:105B3800BA978287930700F817070020A302F71285
:105B48008280930780F8CDBF930790F8F5B7930745
:105B5800A0F8DDB79307B0F8C5B79307C0F8E9BF59
:105B68009307D0F8D1BF9307E0F8F9B79307F0F897
:105B7800E1B7411106C6EFE02F96B24041016FE050
:105B8800CF9A2547B357E5022E86B375E5028607F7
:105B980013F5E70F6FE02F8497A70000938787D648
:105BA80041113E9522C40344050026C2AE842685D1
:105BB8009375140006C6F137935514001385140025
:105BC8008589C13793552400138524008589553F5D
:105BD80093553400138534008589653793554400FF
:105BE800138544008589713F9355540013855400EB
:105BF8008589413F935564002244B240138564006F
:105C0800924485894101B5BF9307300663E3A70035
:105C180061B78280411122C406C626C22A84A1E146
:105C2800854513050003B13F814513058003913F66
:105C380093170401C1832547636BF70681457945AE
:105C4800A13FA5451375F40FC137C9457D45A9374F
:105C5800ED4501452244B2409244410135BF854794
:105C6800E398F5FC814513050003213F854513059D
:105C78008003013F2285EF60B067EF60D07397A77C
:105C88000000938727C79043D443EF60A00F97A7DE
:105C980000009387A7C69043D443EF50E02EEF60EF
:105CA800507CEF60D05E13140501418451B713870F
:105CB80067FF420741839306900563EFE600A94416
:105CC8003345940281451375F50F3D3F33659402C2
:105CD800A5451375F50F8DBF1387C7F94207418393
:105CE800130630386360E6048145794575359304B9
:105CF800400633459402A5451375F50F31373365D2
:105D08009402A944C945334595021375F50FED3D35
:105D1800336594022244B2409244ED451375F50F61
:105D28004101DDB5138737064207418363E6E60282
:105D3800814579459535A5457545EFF0FFE55955F8
:105D48003345A402C9451375F50F7D3D33058040E1
:105D58002944336585027DBFA507C207C183214752
:105D6800814575456367F700EFF01FE33305804011
:105D780085B7EFF07FE2A5457545EFF0FFE1C9452E
:105D88007545EFF07FE1ED457545E9B541114AC02C
:105D98000329850026C2A94422C4404133459902FB
:105DA800814506C61375F50FEFF01FE633659902B6
:105DB800A5451375F50FEFF03FE533459402C94546
:105DC8001375F50FEFF05FE433659402ED45137535
:105DD800F50FEFF07FE3EFC09FA9A1679387670BEB
:105DE8003355F502058905C1854513053003EFF0E4
:105DF8005FD985452244B2409244024913056003A5
:105E080041016FF01FD8814513053003EFF07FD7AC
:105E18008145CDB781C5B2856FF0DFDF4111794586
:105E280006C622C43284EFF03FD7A5457945EFF086
:105E3800BFD6C9457945EFF03FD6ED457945EFF036
:105E4800BFD511EC854513050003EFF09FD38145BD
:105E58002244B2401305800341016FF09FD2854769
:105E68006319F400814513050003EFF09FD18545C0
:105E7800C5B7B240224441018280011122CC26CA12
:105E88002EC606CEAA84EF30B042B24513140501DF
:105E98004180C1E5854513050003EFF09FCE81459C
:105EA80013058003EFF0FFCDF9C497E4FF1F83D4F7
:105EB800648BEF30F03F6385A40897E7FF1F238FBB
:105EC8000788A94433559402814533759502EFF04C
:105ED800BFD333759402A545EFF01FD3C9457D455F
:105EE800EFF09FCBED450145EFF01FCB97E7FF1F84
:105EF80083C7C7862947636BF706850717E7FF1F20
:105F0800230EF784EF30D03AF240624497E7FF1F40
:105F1800239AA784D244056182808547E396F5F8E1
:105F2800814513050003EFF0DFC5854513058003A0
:105F3800EFF03FC5EF30B038131405014180ADB71D
:105F480017E7FF1F034787819547E3FCE7F681457D
:105F58007945EFF07FC4A5457945EFF0FFC3C94502
:105F68007945EFF07FC3ED457945BDBF97D7FF1F52
:105F78002386077E41BFA944335594028145337572
:105F88009502EFF07FC833759402A545EFF0DFC79F
:105F9800C9457D45EFF05FC06244F240D244ED450B
:105FA800014505616FF05FBF41117D1506C6137588
:105FB800F50FA54763EEA70017A700001307078191
:105FC8000A053A951C41854513056002BA978287F0
:105FD800814513056002EFF0DFBA814513057002B1
:105FE800EFF03FBA814513058002EFF09FB9814574
:105FF80013059002EFF0FFB8814513054002EFF05A
:106008005FB8814513055002EFF0BFB7814513050E
:10601800A002EFF01FB781451305B002EFF07FB67D
:1060280081451305C002EFF0DFB58145B240130585
:10603800D00241016FF0FFB4EFF0BFB4854579BFDE
:10604800EFF03FB4854513057002EFF09FB3854527
:1060580059BFEFF01FB3854513057002EFF07FB20B
:10606800854513058002EFF0DFB1854551B7EFF0A4
:106078005FB1854513057002EFF0BFB08545130584
:106088008002EFF01FB0854513059002EFF07FAF57
:106098008545A5B7EFF0FFAE854513057002EFF013
:1060A8005FAE854513058002EFF0BFAD854513054A
:1060B8009002EFF01FAD854513054002EFF07FAC6D
:1060C800854589B7EFF0FFAB854513057002EFF002
:1060D8005FAB854513058002EFF0BFAA8545130520
:1060E8009002EFF01FAA854513054002EFF07FA943
:1060F800854513055002EFF0DFA8854509BFEFF08D
:106108005FA8854513057002EFF0BFA78545130505
:106118008002EFF01FA7854513059002EFF07FA6D8
:10612800854513054002EFF0DFA5854513055002AC
:10613800EFF03FA585451305A002EFF09FA4854524
:10614800E1BDEFF01FA4854513057002EFF07FA3B2
:10615800854513058002EFF0DFA2854513059002FF
:10616800EFF03FA2854513054002EFF09FA185455A
:1061780013055002EFF0FFA085451305A002EFF0CC
:106188005FA085451305B002EFF0BF9F854551BD5F
:10619800EFF03F9F854513057002EFF09F9E854500
:1061A80013058002EFF0FF9D854513059002EFF07F
:1061B8005F9D854513054002EFF0BF9C854513059B
:1061C8005002EFF01F9C85451305A002EFF07F9B5E
:1061D80085451305B002EFF0DF9A85451305C00227
:1061E800EFF03F9A854599B5411106C6EFD05FA3F8
:1061F80097D7FF1F83C7375789E71305C002EFD02A
:10620800EF94C9450145EFF03F99ED454945EFF059
:10621800BF9817D5FF1F0345155505051375F50FCD
:10622800814597D7FF1FA380A754EFF0FFD717D753
:10623800FF1F03475753A94701456317F70097D72F
:10624800FF1FA38207520545B240410182804111D8
:1062580006C6EFD0FF9C17D7FF1F0347E73F9547B8
:106268006316F7001305D002EFD04F8EA5455545AC
:10627800EFF09F92C9453D45EFF01F92ED453D4532
:10628800EFF09F91814517D5FF1F0345E53CEFF0DF
:10629800BFD197D7FF1F83C7273C91CBFD1717D7CF
:1062A800FF1F230BF73A0145B24041018280A947FD
:1062B80017D7FF1F2302F73A0545FDB7411106C658
:1062C800EFD01F96EFC0AFDA9167938787263355D3
:1062D800F502A545058915C95545EFF0FF8BC94558
:1062E8003D45EFF07F8BED453D45EFF0FF8A970781
:1062F800002083C7879685C7FD1717070020230E40
:10630800F7940145B240410182807945EFF0DF887A
:10631800C9457945EFF05F88ED457945F9B7E54717
:1063280017D5FF1F0345D57C170700202307F792D1
:1063380013351500C1BF411106C611C9EFC02FD3CF
:106348009167938787263355F50205890DC18545E1
:106358006545EFF01F83854513057003EFF07F82D5
:106368008545B2401305B00341016FF09F81814517
:106378006545EFF01F81814513057003EFF07F80BD
:106388008145C5B7411122C406C62A84EF4060265C
:1063980019C9854511E081452244B2401305F00230
:1063A80041016FF00FFEB240224441018280411149
:1063B80022C485452A84214506C6EFF08FFC854511
:1063C8006945EFF00FFC854513052002EFF06FFBE0
:1063D800854513053002EFF0CFFA6303041497D70D
:1063E800FF1F83C7B73719476368F70085451D4501
:1063F800EFF02FF9814521A8938697FF93F6F60FC2
:10640800636CD70085451D45EFF0AFF785454145DD
:10641800EFF02FF7814505A0938627FF93F6F60F37
:106428006360D70285451D45EFF0AFF585454145C9
:10643800EFF02FF585454545EFF0AFF4814525A0F0
:106448009386B7FE93F6F60F6365D70281451D451F
:10645800EFF02FF381454145EFF0AFF28145454517
:10646800EFF02FF285451305A003EFF08FF181457A
:106478000DA8938647FE93F6F60F636AD702814507
:106488001D45EFF00FF081454145EFF08FEF814555
:106498004545EFF00FEF85451305A003EFF06FEECC
:1064A80085451305C003EFF0CFED814535A89387E7
:1064B800D7FD93F7F70F81451D45E36BF7F2EFF032
:1064C8004FEC81454145EFF0CFEB81454545EFF075
:1064D8004FEB85451305A003EFF0AFEA854513059B
:1064E800C003EFF00FEA85451305D003EFF06FE91D
:1064F80097D7FF1F83C79726850793F7F70F1307CB
:106508000003636AF70017D7FF1FA309F724B240F7
:1065180022444101828097D7FF1FA3810724C5BF6A
:1065280085451D45EFF0EFE585454145EFF06FE501
:1065380085454545EFF0EFE485451305A003EFF0E9
:106548004FE485451305C003EFF0AFE32244B240A2
:1065580085451305D00341016FF0AFE297D7FF1FC0
:1065680083C7175919476362F70417970000130781
:1065780067288A07BA979C43411106C6BA9782874B
:106588000145EFF05FDB0145B24041016FF03FE2AA
:106598000545EFF0DFE1B240014541016FF0BFD999
:1065A8000145EFF05FD90545C5B70145C5BFB24004
:1065B80041018280411106C622C4EF30604F2A840F
:1065C800EF301005AA870545635180022947B3C7F4
:1065D800E702C207C18763DA87001D8C0945334586
:1065E800A4021375F50F11E105452244B24041019B
:1065F8006F302044557186C7A2C5A6C3EFD04FE2BD
:10660800EF20803DEFF01FD8EF307035854511E160
:10661800814513054003EFF0CFD697D4FF1F93842D
:10662800E402EFF0BFF317D4FF1F1304644E9C403D
:1066380018446310F70E7D17F55663ECE60CEF303F
:10664800206C9C4018406305F7005840639AE700A7
:10665800FD1775576366F7001305F002EFC01FCFEB
:10666800EF20C03585476305F52893178501E18735
:10667800F1C389476303F5308D47630CF538EF3074
:10668800F0776300054C17F7FF1F0347C75B89477F
:106698006311F74097F7FF1F83C7575C85C38507CA
:1066A80093F7F70F17F7FF1FA30AF75A13073002DC
:1066B8006375F73A97F7FF1FA382075A81451305B9
:1066C8003003EFF00FCC814513056003EFF06FCB7B
:1066D800216497D7FF1F83C7B7411304640B639ED8
:1066E800073EEFC0CF98335585020589630C0542F4
:1066F800EF300072A9473345F50297D5FF1F83C5D0
:10670800753E42054185EFF0EFD00145EFF0BFC27D
:10671800B9A65844E397E7F2FD177557E363F7F214
:106728001305F002EFC09FC22E44BE409E4469612B
:106738006F406005EF30906C97F7FF1F83C73751A4
:106748001387170097F6FF1FA383E650130730023D
:106758006305050E637BF700EF30006D0145EF30F0
:10676800406DEF30602CEF30A02E9C401840631D28
:10677800F7067D17F55663E9E606EF30E06AEF2085
:10678800002DA9473305F50297F7FF1F2395A74C5E
:106798000545EF30006AEF306033EFC04F8DA167D9
:1067A8009387670B3355F5028545058911E18145C6
:1067B80013051003EFF0EFBC814513052003EFF03C
:1067C8004FBCEFF03FDFEF3080258545EFF0CFFD80
:1067D800EF30E06485476311F50497D5FF1F83C543
:1067E8007530EFF08FE961BD5840E398E7FAFD177F
:1067F8007557E364F7FAEF302063EF204025A94787
:106808003305F50297F7FF1F2397A7440545EF3097
:106818004062EF30403B51B70818EFE01FC9EF3036
:1068280010142A84130640020C180A85EF60100B16
:10683800A2850A85EFF08FD599B5637BF700EF3015
:10684800A05E0145EF30E05EEF30001EEF304020E3
:106858009C4018406316F7067D17F55663E2E60676
:10686800EF30805CEF20A01EA9473305F50297F7AB
:10687800FF1F2392A73E0545EF30A05BEF300025B0
:10688800854513051003EFF0CFAF814513052003AD
:10689800EFF02FAFEFF01FD2EF3060188545EFF023
:1068A800AFF0EF30C0578547E309F5F2C808EFE0CD
:1068B800DFBFEF30D00A2A8413064002CC08B5B7F0
:1068C8005840E39FE7FAFD177557E36BF7FAEF3087
:1068D800A055EF20C017A9473305F50297F7FF1F0A
:1068E800239BA7360545EF30C054EF30C02D49BF74
:1068F800EF30805397F7FF1FA38207369C4018405C
:10690800631AF7047D17F55663E6E604EF202014B2
:10691800A9473305F50297F7FF1F239EA732EF30EB
:106928000015814513051003EFF0AFA58545130544
:106938002003EFF00FA5EF30E00D8545EFF0CFE62F
:10694800A818EFE09FB6EF3090012A8413064002A2
:10695800AC18E1BD5840E396E7FCFD177557E362B4
:10696800F7FCEF20C00EA9473305F50297F7FF1F84
:106978002393A72EEF3020126DB7EF30E04A97F738
:10698800FF1FA38D072C9C4018406311F7067D1745
:10699800F55663EDE604EF20800BA9473305F502B1
:1069A80097F7FF1F2399A72AEF30C03081451305B9
:1069B8001003EFF00F9D814513052003EFF06F9C46
:1069C800EF3060338545EFF02FDE81457945EFF0F4
:1069D800AF9CA5454D45EFF02F9CC9453945EFF0D3
:1069E800AF9BED454945EFF02F9B51B95840E39FC8
:1069F800E7FAFD177557E36BF7FAEF204005A9474B
:106A08003305F50297F7FF1F2397A724EF30002DD2
:106A180071BFEF30604181451305100397F7FF1FE1
:106A2800A38E0722EFF0EF95814513052003EFF0C1
:106A38004F9585452945EFF02FD781454145EFF022
:106A4800AF95A5450545EFF02F95C94513050002FB
:106A5800EFF08F94ED45414579B7E38107C617D428
:106A6800FF1F034444D0EF30A0046304A402EF30B6
:106A7800200497D7FF1F2388A7CE854797D5FF1FE8
:106A880083C55506054517F7FF1FA309F71CEFF047
:106A9800CFBE97D7FF1F83C7D70563860710EF10B0
:106AA800107BA9473305F502254797F7FF1F239465
:106AB800A71A97D7FF1F9387A70383C73700FD1728
:106AC80093F7F70F6362F70A17970000130747D485
